{
  "address": "0x0e5e3787eeec149357b5E40f70329A84001f7305",
  "abi": [
    {
      "inputs": [
        {
          "internalType": "address",
          "name": "priceProviderAddress",
          "type": "address"
        },
        {
          "internalType": "address",
          "name": "_adminAddress",
          "type": "address"
        }
      ],
      "stateMutability": "nonpayable",
      "type": "constructor"
    },
    {
      "anonymous": false,
      "inputs": [
        {
          "indexed": true,
          "internalType": "address",
          "name": "user",
          "type": "address"
        },
        {
          "indexed": false,
          "internalType": "uint256",
          "name": "amount",
          "type": "uint256"
        },
        {
          "indexed": false,
          "internalType": "string",
          "name": "orderId",
          "type": "string"
        },
        {
          "indexed": false,
          "internalType": "string",
          "name": "eventId",
          "type": "string"
        }
      ],
      "name": "PaymentMade",
      "type": "event"
    },
    {
      "anonymous": false,
      "inputs": [
        {
          "indexed": true,
          "internalType": "bytes32",
          "name": "role",
          "type": "bytes32"
        },
        {
          "indexed": true,
          "internalType": "bytes32",
          "name": "previousAdminRole",
          "type": "bytes32"
        },
        {
          "indexed": true,
          "internalType": "bytes32",
          "name": "newAdminRole",
          "type": "bytes32"
        }
      ],
      "name": "RoleAdminChanged",
      "type": "event"
    },
    {
      "anonymous": false,
      "inputs": [
        {
          "indexed": true,
          "internalType": "bytes32",
          "name": "role",
          "type": "bytes32"
        },
        {
          "indexed": true,
          "internalType": "address",
          "name": "account",
          "type": "address"
        },
        {
          "indexed": true,
          "internalType": "address",
          "name": "sender",
          "type": "address"
        }
      ],
      "name": "RoleGranted",
      "type": "event"
    },
    {
      "anonymous": false,
      "inputs": [
        {
          "indexed": true,
          "internalType": "bytes32",
          "name": "role",
          "type": "bytes32"
        },
        {
          "indexed": true,
          "internalType": "address",
          "name": "account",
          "type": "address"
        },
        {
          "indexed": true,
          "internalType": "address",
          "name": "sender",
          "type": "address"
        }
      ],
      "name": "RoleRevoked",
      "type": "event"
    },
    {
      "inputs": [],
      "name": "ADMIN_ROLE",
      "outputs": [
        {
          "internalType": "bytes32",
          "name": "",
          "type": "bytes32"
        }
      ],
      "stateMutability": "view",
      "type": "function"
    },
    {
      "inputs": [],
      "name": "DEFAULT_ADMIN_ROLE",
      "outputs": [
        {
          "internalType": "bytes32",
          "name": "",
          "type": "bytes32"
        }
      ],
      "stateMutability": "view",
      "type": "function"
    },
    {
      "inputs": [],
      "name": "adminAddress",
      "outputs": [
        {
          "internalType": "address",
          "name": "",
          "type": "address"
        }
      ],
      "stateMutability": "view",
      "type": "function"
    },
    {
      "inputs": [
        {
          "internalType": "string",
          "name": "eventId",
          "type": "string"
        }
      ],
      "name": "getNativePrice",
      "outputs": [
        {
          "internalType": "uint256",
          "name": "",
          "type": "uint256"
        }
      ],
      "stateMutability": "view",
      "type": "function"
    },
    {
      "inputs": [
        {
          "internalType": "string",
          "name": "orderId",
          "type": "string"
        }
      ],
      "name": "getPaymentDetail",
      "outputs": [
        {
          "components": [
            {
              "internalType": "address",
              "name": "user",
              "type": "address"
            },
            {
              "internalType": "uint256",
              "name": "amount",
              "type": "uint256"
            },
            {
              "internalType": "uint256",
              "name": "timestamp",
              "type": "uint256"
            },
            {
              "internalType": "string",
              "name": "eventId",
              "type": "string"
            }
          ],
          "internalType": "struct NativeTokenPayment.PaymentDetail",
          "name": "",
          "type": "tuple"
        }
      ],
      "stateMutability": "view",
      "type": "function"
    },
    {
      "inputs": [
        {
          "internalType": "bytes32",
          "name": "role",
          "type": "bytes32"
        }
      ],
      "name": "getRoleAdmin",
      "outputs": [
        {
          "internalType": "bytes32",
          "name": "",
          "type": "bytes32"
        }
      ],
      "stateMutability": "view",
      "type": "function"
    },
    {
      "inputs": [
        {
          "internalType": "bytes32",
          "name": "role",
          "type": "bytes32"
        },
        {
          "internalType": "address",
          "name": "account",
          "type": "address"
        }
      ],
      "name": "grantRole",
      "outputs": [],
      "stateMutability": "nonpayable",
      "type": "function"
    },
    {
      "inputs": [
        {
          "internalType": "bytes32",
          "name": "role",
          "type": "bytes32"
        },
        {
          "internalType": "address",
          "name": "account",
          "type": "address"
        }
      ],
      "name": "hasRole",
      "outputs": [
        {
          "internalType": "bool",
          "name": "",
          "type": "bool"
        }
      ],
      "stateMutability": "view",
      "type": "function"
    },
    {
      "inputs": [
        {
          "internalType": "string",
          "name": "orderId",
          "type": "string"
        },
        {
          "internalType": "string",
          "name": "eventId",
          "type": "string"
        }
      ],
      "name": "pay",
      "outputs": [],
      "stateMutability": "payable",
      "type": "function"
    },
    {
      "inputs": [
        {
          "internalType": "string",
          "name": "",
          "type": "string"
        }
      ],
      "name": "payments",
      "outputs": [
        {
          "internalType": "address",
          "name": "user",
          "type": "address"
        },
        {
          "internalType": "uint256",
          "name": "amount",
          "type": "uint256"
        },
        {
          "internalType": "uint256",
          "name": "timestamp",
          "type": "uint256"
        },
        {
          "internalType": "string",
          "name": "eventId",
          "type": "string"
        }
      ],
      "stateMutability": "view",
      "type": "function"
    },
    {
      "inputs": [],
      "name": "priceProvider",
      "outputs": [
        {
          "internalType": "contract IPriceProvider",
          "name": "",
          "type": "address"
        }
      ],
      "stateMutability": "view",
      "type": "function"
    },
    {
      "inputs": [
        {
          "internalType": "bytes32",
          "name": "role",
          "type": "bytes32"
        },
        {
          "internalType": "address",
          "name": "account",
          "type": "address"
        }
      ],
      "name": "renounceRole",
      "outputs": [],
      "stateMutability": "nonpayable",
      "type": "function"
    },
    {
      "inputs": [
        {
          "internalType": "bytes32",
          "name": "role",
          "type": "bytes32"
        },
        {
          "internalType": "address",
          "name": "account",
          "type": "address"
        }
      ],
      "name": "revokeRole",
      "outputs": [],
      "stateMutability": "nonpayable",
      "type": "function"
    },
    {
      "inputs": [
        {
          "internalType": "address",
          "name": "newPriceProvider",
          "type": "address"
        }
      ],
      "name": "setPriceProvider",
      "outputs": [],
      "stateMutability": "nonpayable",
      "type": "function"
    },
    {
      "inputs": [
        {
          "internalType": "uint256",
          "name": "_usdPrice",
          "type": "uint256"
        }
      ],
      "name": "setUsdPrice",
      "outputs": [],
      "stateMutability": "nonpayable",
      "type": "function"
    },
    {
      "inputs": [
        {
          "internalType": "bytes4",
          "name": "interfaceId",
          "type": "bytes4"
        }
      ],
      "name": "supportsInterface",
      "outputs": [
        {
          "internalType": "bool",
          "name": "",
          "type": "bool"
        }
      ],
      "stateMutability": "view",
      "type": "function"
    },
    {
      "inputs": [],
      "name": "usdPrice",
      "outputs": [
        {
          "internalType": "uint256",
          "name": "",
          "type": "uint256"
        }
      ],
      "stateMutability": "view",
      "type": "function"
    },
    {
      "inputs": [],
      "name": "useChainlink",
      "outputs": [
        {
          "internalType": "bool",
          "name": "",
          "type": "bool"
        }
      ],
      "stateMutability": "view",
      "type": "function"
    }
  ],
  "transactionHash": "0x421bb898534b00a42f48eed15ed25a39eb01355baf9edd51c4efb55917a9edcc",
  "args": [
    "0xb327A4F96Bc69f624c577B3f1508044e266f1808",
    "0x8962DFafe0Ed6c3801BbbD8196D1156b5e97351a"
  ],
  "numDeployments": 1,
  "solcInputHash": "61e3c86f729ca663283c087e23dcb50c",
  "bytecode": "0x60806040526006805460ff191690553480156200001b57600080fd5b506040516200159b3803806200159b8339810160408190526200003e916200017a565b600180556200004f600033620000ad565b6200007b7fa49807205ce4d355092ef5a8a18f56e8913cf4a201fbe287825b095693c2177533620000ad565b600280546001600160a01b039384166001600160a01b03199182161790915560048054929093169116179055620001b2565b620000b98282620000bd565b5050565b6000828152602081815260408083206001600160a01b038516845290915290205460ff16620000b9576000828152602081815260408083206001600160a01b03851684529091529020805460ff19166001179055620001193390565b6001600160a01b0316816001600160a01b0316837f2f8788117e7eff1d82e926ec794901d17c78024a50270940304540a733656f0d60405160405180910390a45050565b80516001600160a01b03811681146200017557600080fd5b919050565b600080604083850312156200018e57600080fd5b62000199836200015d565b9150620001a9602084016200015d565b90509250929050565b6113d980620001c26000396000f3fe6080604052600436106101095760003560e01c806391d1485411610095578063d547741f11610064578063d547741f14610301578063f46e588c14610321578063f946871314610334578063fc0b61be14610364578063fc6f94681461038457600080fd5b806391d1485414610274578063a217fddf14610294578063b888879e146102a9578063c3142330146102e157600080fd5b806336568abe116100dc57806336568abe146101d0578063372aa224146101f057806364fd2170146102105780636619aa861461022a57806375b238fc1461024057600080fd5b806301ffc9a71461010e578063248a9ca3146101435780632f2ff15d1461018157806335bc654d146101a3575b600080fd5b34801561011a57600080fd5b5061012e610129366004610e37565b6103a4565b60405190151581526020015b60405180910390f35b34801561014f57600080fd5b5061017361015e366004610e61565b60009081526020819052604090206001015490565b60405190815260200161013a565b34801561018d57600080fd5b506101a161019c366004610e91565b6103db565b005b3480156101af57600080fd5b506101c36101be366004610f60565b610405565b60405161013a9190610fed565b3480156101dc57600080fd5b506101a16101eb366004610e91565b610524565b3480156101fc57600080fd5b506101a161020b36600461102e565b6105a7565b34801561021c57600080fd5b5060065461012e9060ff1681565b34801561023657600080fd5b5061017360035481565b34801561024c57600080fd5b506101737fa49807205ce4d355092ef5a8a18f56e8913cf4a201fbe287825b095693c2177581565b34801561028057600080fd5b5061012e61028f366004610e91565b6105f4565b3480156102a057600080fd5b50610173600081565b3480156102b557600080fd5b506002546102c9906001600160a01b031681565b6040516001600160a01b03909116815260200161013a565b3480156102ed57600080fd5b506101a16102fc366004610e61565b61061d565b34801561030d57600080fd5b506101a161031c366004610e91565b61064d565b6101a161032f366004611049565b610672565b34801561034057600080fd5b5061035461034f366004610f60565b6108fa565b60405161013a94939291906110ad565b34801561037057600080fd5b5061017361037f366004610f60565b6109c2565b34801561039057600080fd5b506004546102c9906001600160a01b031681565b60006001600160e01b03198216637965db0b60e01b14806103d557506301ffc9a760e01b6001600160e01b03198316145b92915050565b6000828152602081905260409020600101546103f681610ae1565b6104008383610aee565b505050565b610439604051806080016040528060006001600160a01b031681526020016000815260200160008152602001606081525090565b60058260405161044991906110e4565b90815260408051918290036020908101832060808401835280546001600160a01b0316845260018101549184019190915260028101549183019190915260038101805460608401919061049b90611100565b80601f01602080910402602001604051908101604052809291908181526020018280546104c790611100565b80156105145780601f106104e957610100808354040283529160200191610514565b820191906000526020600020905b8154815290600101906020018083116104f757829003601f168201915b5050505050815250509050919050565b6001600160a01b03811633146105995760405162461bcd60e51b815260206004820152602f60248201527f416363657373436f6e74726f6c3a2063616e206f6e6c792072656e6f756e636560448201526e103937b632b9903337b91039b2b63360891b60648201526084015b60405180910390fd5b6105a38282610b72565b5050565b7fa49807205ce4d355092ef5a8a18f56e8913cf4a201fbe287825b095693c217756105d181610ae1565b50600280546001600160a01b0319166001600160a01b0392909216919091179055565b6000918252602082815260408084206001600160a01b0393909316845291905290205460ff1690565b7fa49807205ce4d355092ef5a8a18f56e8913cf4a201fbe287825b095693c2177561064781610ae1565b50600355565b60008281526020819052604090206001015461066881610ae1565b6104008383610b72565b61067a610bd7565b60008251116106cb5760405162461bcd60e51b815260206004820152601860248201527f4f726465722049442063616e6e6f7420626520656d70747900000000000000006044820152606401610590565b60006001600160a01b03166005836040516106e691906110e4565b908152604051908190036020019020546001600160a01b0316146107445760405162461bcd60e51b815260206004820152601560248201527413dc99195c88125108185b1c9958591e481d5cd959605a1b6044820152606401610590565b600061074f826109c2565b9050803410156107985760405162461bcd60e51b8152602060048201526014602482015273125b9cdd59999a58da595b9d081c185e5b595b9d60621b6044820152606401610590565b6004546040516000916001600160a01b03169034908381818185875af1925050503d80600081146107e5576040519150601f19603f3d011682016040523d82523d6000602084013e6107ea565b606091505b505090508061082d5760405162461bcd60e51b815260206004820152600f60248201526e151c985b9cd9995c8819985a5b1959608a1b6044820152606401610590565b60408051608081018252338152346020820152428183015260608101859052905160059061085c9087906110e4565b9081526040805160209281900383019020835181546001600160a01b0319166001600160a01b039091161781559183015160018301558201516002820155606082015160038201906108ae9082611188565b50506040513391507f39891f29dcf660e907fa5cac57a55a36f8eeaacc3dbc58ce3be992a406d7afd6906108e790349088908890611248565b60405180910390a250506105a360018055565b805160208183018101805160058252928201919093012091528054600182015460028301546003840180546001600160a01b0390941694929391929161093f90611100565b80601f016020809104026020016040519081016040528092919081815260200182805461096b90611100565b80156109b85780601f1061098d576101008083540402835291602001916109b8565b820191906000526020600020905b81548152906001019060200180831161099b57829003601f168201915b5050505050905084565b60065460009060ff16610a6b5760025460405163524f388960e01b81526000916001600160a01b03169063524f388990610a00908690600401611273565b602060405180830381865afa158015610a1d573d6000803e3d6000fd5b505050506040513d601f19601f82011682018060405250810190610a419190611286565b905080600354670de0b6b3a7640000610a5a91906112b5565b610a6491906112cc565b9392505050565b60025460405163524f388960e01b81526001600160a01b039091169063524f388990610a9b908590600401611273565b602060405180830381865afa158015610ab8573d6000803e3d6000fd5b505050506040513d601f19601f820116820180604052508101906103d59190611286565b919050565b610aeb8133610c30565b50565b610af882826105f4565b6105a3576000828152602081815260408083206001600160a01b03851684529091529020805460ff19166001179055610b2e3390565b6001600160a01b0316816001600160a01b0316837f2f8788117e7eff1d82e926ec794901d17c78024a50270940304540a733656f0d60405160405180910390a45050565b610b7c82826105f4565b156105a3576000828152602081815260408083206001600160a01b0385168085529252808320805460ff1916905551339285917ff6391f5c32d9c69d2a47ea670b442974b53935d1edc7fd64eb21e047a839171b9190a45050565b600260015403610c295760405162461bcd60e51b815260206004820152601f60248201527f5265656e7472616e637947756172643a207265656e7472616e742063616c6c006044820152606401610590565b6002600155565b610c3a82826105f4565b6105a357610c4781610c89565b610c52836020610c9b565b604051602001610c639291906112ee565b60408051601f198184030181529082905262461bcd60e51b825261059091600401611273565b60606103d56001600160a01b03831660145b60606000610caa8360026112b5565b610cb5906002611363565b67ffffffffffffffff811115610ccd57610ccd610ebd565b6040519080825280601f01601f191660200182016040528015610cf7576020820181803683370190505b509050600360fc1b81600081518110610d1257610d12611376565b60200101906001600160f81b031916908160001a905350600f60fb1b81600181518110610d4157610d41611376565b60200101906001600160f81b031916908160001a9053506000610d658460026112b5565b610d70906001611363565b90505b6001811115610de8576f181899199a1a9b1b9c1cb0b131b232b360811b85600f1660108110610da457610da4611376565b1a60f81b828281518110610dba57610dba611376565b60200101906001600160f81b031916908160001a90535060049490941c93610de18161138c565b9050610d73565b508315610a645760405162461bcd60e51b815260206004820181905260248201527f537472696e67733a20686578206c656e67746820696e73756666696369656e746044820152606401610590565b600060208284031215610e4957600080fd5b81356001600160e01b031981168114610a6457600080fd5b600060208284031215610e7357600080fd5b5035919050565b80356001600160a01b0381168114610adc57600080fd5b60008060408385031215610ea457600080fd5b82359150610eb460208401610e7a565b90509250929050565b634e487b7160e01b600052604160045260246000fd5b600082601f830112610ee457600080fd5b813567ffffffffffffffff80821115610eff57610eff610ebd565b604051601f8301601f19908116603f01168101908282118183101715610f2757610f27610ebd565b81604052838152866020858801011115610f4057600080fd5b836020870160208301376000602085830101528094505050505092915050565b600060208284031215610f7257600080fd5b813567ffffffffffffffff811115610f8957600080fd5b610f9584828501610ed3565b949350505050565b60005b83811015610fb8578181015183820152602001610fa0565b50506000910152565b60008151808452610fd9816020860160208601610f9d565b601f01601f19169290920160200192915050565b6020815260018060a01b038251166020820152602082015160408201526040820151606082015260006060830151608080840152610f9560a0840182610fc1565b60006020828403121561104057600080fd5b610a6482610e7a565b6000806040838503121561105c57600080fd5b823567ffffffffffffffff8082111561107457600080fd5b61108086838701610ed3565b9350602085013591508082111561109657600080fd5b506110a385828601610ed3565b9150509250929050565b60018060a01b03851681528360208201528260408201526080606082015260006110da6080830184610fc1565b9695505050505050565b600082516110f6818460208701610f9d565b9190910192915050565b600181811c9082168061111457607f821691505b60208210810361113457634e487b7160e01b600052602260045260246000fd5b50919050565b601f82111561040057600081815260208120601f850160051c810160208610156111615750805b601f850160051c820191505b818110156111805782815560010161116d565b505050505050565b815167ffffffffffffffff8111156111a2576111a2610ebd565b6111b6816111b08454611100565b8461113a565b602080601f8311600181146111eb57600084156111d35750858301515b600019600386901b1c1916600185901b178555611180565b600085815260208120601f198616915b8281101561121a578886015182559484019460019091019084016111fb565b50858210156112385787850151600019600388901b60f8161c191681555b5050505050600190811b01905550565b8381526060602082015260006112616060830185610fc1565b82810360408401526110da8185610fc1565b602081526000610a646020830184610fc1565b60006020828403121561129857600080fd5b5051919050565b634e487b7160e01b600052601160045260246000fd5b80820281158282048414176103d5576103d561129f565b6000826112e957634e487b7160e01b600052601260045260246000fd5b500490565b7f416363657373436f6e74726f6c3a206163636f756e7420000000000000000000815260008351611326816017850160208801610f9d565b7001034b99036b4b9b9b4b733903937b6329607d1b6017918401918201528351611357816028840160208801610f9d565b01602801949350505050565b808201808211156103d5576103d561129f565b634e487b7160e01b600052603260045260246000fd5b60008161139b5761139b61129f565b50600019019056fea264697066735822122048974a76289ff3cdda39838e9fe38d57781cf0516fd50201951192dcaae99b7e64736f6c63430008130033",
  "devdoc": {
    "events": {
      "RoleAdminChanged(bytes32,bytes32,bytes32)": {
        "details": "Emitted when `newAdminRole` is set as ``role``'s admin role, replacing `previousAdminRole` `DEFAULT_ADMIN_ROLE` is the starting admin for all roles, despite {RoleAdminChanged} not being emitted signaling this. _Available since v3.1._"
      },
      "RoleGranted(bytes32,address,address)": {
        "details": "Emitted when `account` is granted `role`. `sender` is the account that originated the contract call, an admin role bearer except when using {AccessControl-_setupRole}."
      },
      "RoleRevoked(bytes32,address,address)": {
        "details": "Emitted when `account` is revoked `role`. `sender` is the account that originated the contract call:   - if using `revokeRole`, it is the admin role bearer   - if using `renounceRole`, it is the role bearer (i.e. `account`)"
      }
    },
    "kind": "dev",
    "methods": {
      "getRoleAdmin(bytes32)": {
        "details": "Returns the admin role that controls `role`. See {grantRole} and {revokeRole}. To change a role's admin, use {_setRoleAdmin}."
      },
      "grantRole(bytes32,address)": {
        "details": "Grants `role` to `account`. If `account` had not been already granted `role`, emits a {RoleGranted} event. Requirements: - the caller must have ``role``'s admin role. May emit a {RoleGranted} event."
      },
      "hasRole(bytes32,address)": {
        "details": "Returns `true` if `account` has been granted `role`."
      },
      "renounceRole(bytes32,address)": {
        "details": "Revokes `role` from the calling account. Roles are often managed via {grantRole} and {revokeRole}: this function's purpose is to provide a mechanism for accounts to lose their privileges if they are compromised (such as when a trusted device is misplaced). If the calling account had been revoked `role`, emits a {RoleRevoked} event. Requirements: - the caller must be `account`. May emit a {RoleRevoked} event."
      },
      "revokeRole(bytes32,address)": {
        "details": "Revokes `role` from `account`. If `account` had been granted `role`, emits a {RoleRevoked} event. Requirements: - the caller must have ``role``'s admin role. May emit a {RoleRevoked} event."
      },
      "supportsInterface(bytes4)": {
        "details": "See {IERC165-supportsInterface}."
      }
    },
    "version": 1
  },
  "userdoc": {
    "kind": "user",
    "methods": {},
    "version": 1
  },
  "storageLayout": {
    "storage": [
      {
        "astId": 2291,
        "contract": "contracts/core/NativeTokenPayment.sol:NativeTokenPayment",
        "label": "_roles",
        "offset": 0,
        "slot": "0",
        "type": "t_mapping(t_bytes32,t_struct(RoleData)2286_storage)"
      },
      {
        "astId": 2779,
        "contract": "contracts/core/NativeTokenPayment.sol:NativeTokenPayment",
        "label": "_status",
        "offset": 0,
        "slot": "1",
        "type": "t_uint256"
      },
      {
        "astId": 5321,
        "contract": "contracts/core/NativeTokenPayment.sol:NativeTokenPayment",
        "label": "priceProvider",
        "offset": 0,
        "slot": "2",
        "type": "t_contract(IPriceProvider)5552"
      },
      {
        "astId": 5323,
        "contract": "contracts/core/NativeTokenPayment.sol:NativeTokenPayment",
        "label": "usdPrice",
        "offset": 0,
        "slot": "3",
        "type": "t_uint256"
      },
      {
        "astId": 5325,
        "contract": "contracts/core/NativeTokenPayment.sol:NativeTokenPayment",
        "label": "adminAddress",
        "offset": 0,
        "slot": "4",
        "type": "t_address"
      },
      {
        "astId": 5339,
        "contract": "contracts/core/NativeTokenPayment.sol:NativeTokenPayment",
        "label": "payments",
        "offset": 0,
        "slot": "5",
        "type": "t_mapping(t_string_memory_ptr,t_struct(PaymentDetail)5334_storage)"
      },
      {
        "astId": 5352,
        "contract": "contracts/core/NativeTokenPayment.sol:NativeTokenPayment",
        "label": "useChainlink",
        "offset": 0,
        "slot": "6",
        "type": "t_bool"
      }
    ],
    "types": {
      "t_address": {
        "encoding": "inplace",
        "label": "address",
        "numberOfBytes": "20"
      },
      "t_bool": {
        "encoding": "inplace",
        "label": "bool",
        "numberOfBytes": "1"
      },
      "t_bytes32": {
        "encoding": "inplace",
        "label": "bytes32",
        "numberOfBytes": "32"
      },
      "t_contract(IPriceProvider)5552": {
        "encoding": "inplace",
        "label": "contract IPriceProvider",
        "numberOfBytes": "20"
      },
      "t_mapping(t_address,t_bool)": {
        "encoding": "mapping",
        "key": "t_address",
        "label": "mapping(address => bool)",
        "numberOfBytes": "32",
        "value": "t_bool"
      },
      "t_mapping(t_bytes32,t_struct(RoleData)2286_storage)": {
        "encoding": "mapping",
        "key": "t_bytes32",
        "label": "mapping(bytes32 => struct AccessControl.RoleData)",
        "numberOfBytes": "32",
        "value": "t_struct(RoleData)2286_storage"
      },
      "t_mapping(t_string_memory_ptr,t_struct(PaymentDetail)5334_storage)": {
        "encoding": "mapping",
        "key": "t_string_memory_ptr",
        "label": "mapping(string => struct NativeTokenPayment.PaymentDetail)",
        "numberOfBytes": "32",
        "value": "t_struct(PaymentDetail)5334_storage"
      },
      "t_string_memory_ptr": {
        "encoding": "bytes",
        "label": "string",
        "numberOfBytes": "32"
      },
      "t_string_storage": {
        "encoding": "bytes",
        "label": "string",
        "numberOfBytes": "32"
      },
      "t_struct(PaymentDetail)5334_storage": {
        "encoding": "inplace",
        "label": "struct NativeTokenPayment.PaymentDetail",
        "members": [
          {
            "astId": 5327,
            "contract": "contracts/core/NativeTokenPayment.sol:NativeTokenPayment",
            "label": "user",
            "offset": 0,
            "slot": "0",
            "type": "t_address"
          },
          {
            "astId": 5329,
            "contract": "contracts/core/NativeTokenPayment.sol:NativeTokenPayment",
            "label": "amount",
            "offset": 0,
            "slot": "1",
            "type": "t_uint256"
          },
          {
            "astId": 5331,
            "contract": "contracts/core/NativeTokenPayment.sol:NativeTokenPayment",
            "label": "timestamp",
            "offset": 0,
            "slot": "2",
            "type": "t_uint256"
          },
          {
            "astId": 5333,
            "contract": "contracts/core/NativeTokenPayment.sol:NativeTokenPayment",
            "label": "eventId",
            "offset": 0,
            "slot": "3",
            "type": "t_string_storage"
          }
        ],
        "numberOfBytes": "128"
      },
      "t_struct(RoleData)2286_storage": {
        "encoding": "inplace",
        "label": "struct AccessControl.RoleData",
        "members": [
          {
            "astId": 2283,
            "contract": "contracts/core/NativeTokenPayment.sol:NativeTokenPayment",
            "label": "members",
            "offset": 0,
            "slot": "0",
            "type": "t_mapping(t_address,t_bool)"
          },
          {
            "astId": 2285,
            "contract": "contracts/core/NativeTokenPayment.sol:NativeTokenPayment",
            "label": "adminRole",
            "offset": 0,
            "slot": "1",
            "type": "t_bytes32"
          }
        ],
        "numberOfBytes": "64"
      },
      "t_uint256": {
        "encoding": "inplace",
        "label": "uint256",
        "numberOfBytes": "32"
      }
    }
  }
}